:020000020000FC
:2000000000400034086008140800683A00000000000000000000000000000000000000003E
:2000080006C00074DEC0001406800074D685EA140080003410A5F21400C0003418E5F6142F
:2000100010C00326100000151080010410FFFD36000809C0003FFF06DEFFFE04DFC0011532
:20001800DF000015D839883A00803FC40007883A18800035010003F4211090040008118092
:200020000007883A0005883A10C00035010003F42110900400081180003FF306DEFFFD04BF
:20002800DFC00215DF000115DF0001040009883A000817C00001883A00081B400180007464
:2000300031A53004014000742965300401000074212530040008944000087A00010000746D
:20003800212200040008F480D0A00817D0E00917D1200A17200D883A180B883A1009883AC5
:2000400000080580E0BFFF150100004400085BC0E13FFF170008F5C0DEFFFD04DFC0021571
:20004800DF000115DF000104E13FFF15E13FFF1700084280E037883ADFC00117DF00001705
:20005000DEC00204F800283ADEFFFD04DFC00215DF000115DF000104E13FFF15D1600204BA
:20005800E13FFF1700086FC0E037883ADFC00117DF000017DEC00204F800283ADEFFFD04B9
:20006000DFC00215DF000115DF000104E13FFF150008CC80008000441001703A0001883A27
:20006800E037883ADFC00117DF000017DEC00204F800283ADEFFFE04DFC00115DF0000156C
:20007000D839883A0100007421253D04000814800001883AE037883ADFC00117DF000017BC
:20007800DEC00204F800283ADEFFFA04DFC00515DF000415DF000404E13FFD15E17FFE1552
:20008000E1BFFF15E0BFFD1710800017E0BFFC15E0BFFC1710C00A04E0BFFD1710800217B6
:20008800100F883AE1BFFF17E17FFE171809883A00082A80E037883ADFC00117DF00001731
:20009000DEC00204F800283ADEFFFA04DFC00515DF000415DF000404E13FFD15E17FFE153A
:20009800E1BFFF15E0BFFD1710800017E0BFFC15E0BFFC1710C00A04E0BFFD17108002179E
:2000A000100F883AE1BFFF17E17FFE171809883A00083940E037883ADFC00117DF0000174A
:2000A800DEC00204F800283ADEFFF704DF000815DF000804E13FFC15E17FFD15E1BFFE1525
:2000B000E1FFFF15E0BFFC1710800017E0BFF915E0BFFD17E0BFF815E0BFFE17E0FFFD1730
:2000B8001885883AE0BFFA1500001206E0BFF91710800037E0BFFB15E0BFFB1710A0000C71
:2000C00010000626E0BFF81710C00044E0FFF815E0FFFB1710C0000500000606E0FFF81776
:2000C800E0BFFD171880071EE0BFFF171090000C1000061EE0FFF817E0BFFA1718BFEB367D
:2000D000000003060001883A000001060001883AE0FFF817E0BFFD1718800426E0FFF81729
:2000D800E0BFFD171885C83A00000606E0BFFF171090000C1000022600BFFD44000001060A
:2000E00000BFFEC4E037883ADF000017DEC00104F800283ADEFFF904DF000615DF000604F6
:2000E800E13FFC15E17FFD15E1BFFE15E1FFFF15E0BFFC1710800017E0BFFA15E0BFFE17F3
:2000F000E0FFFD171885883AE0BFFB1500000E06E0BFFA17108001041080003710BFFFEC15
:2000F80010000926E0FFFA17E0BFFD1711000044E13FFD151080000310803FCC1080201C85
:2001000010BFE00418800035E0FFFD17E0BFFB1718BFEF36E0BFFE17E037883ADF0000173C
:20010800DEC00104F800283ADEFFFA04DFC00515DF000415DF000404E13FFF15008002446D
:20011000E0BFFD15014003F429509004E13FFD1700094640100B883A0100BEF4213C200405
:2001180000093A80100B883A01200034213FFFC400093A80100B883AE13FFF1700093A8016
:20012000E0BFFE15E0BFFE1710002A26E03FFC150000170600A0003410BFFFC410BFFFC4B4
:20012800103FFE1E014003F429509004E13FFD1700094640100B883A0100BEF4213C200433
:2001300000093A80100B883A01200034213FFFC400093A801007883AE0BFFF1710C5C83A6F
:20013800E0BFFF15E0BFFC1710800044E0BFFC15E0FFFC17E0BFFE1718BFE616014003F40D
:2001400029509004E13FFD1700094640100B883A0100BEF4213C200400093A80E17FFF1785
:200148001009883A0009464010BFFFC4103FFE1E00000D06014003F429509004E13FFD17A4
:2001500000094640100B883A0100BEF4213C200400093A80E17FFF171009883A000946404C
:2001580010BFFFC400BFFE160005883AE037883ADFC00117DF000017DEC00204F800283AD7
:20016000DEFFFE04DFC00115DF000015D839883AD0A0051710000326D0A00517103EE83A63
:2001680000000106D0A00B04E037883ADFC00117DF000017DEC00204F800283ADEFFFB0491
:20017000DFC00415DF000315DF000304E13FFF15E0BFFF171000081601400304E13FFF1745
:20017800000946401007883A0080007410A552041885883A000001060005883AE0BFFD1522
:20018000E0BFFD1710001926E0BFFD17108000171080041710000626E0BFFD1710800017C2
:2001880010800417E13FFD17103EE83A000001060005883AE0BFFE15E13FFF170008C44046
:20019000E0BFFE171000070E000858001007883AE0BFFE170085C83A1880001500BFFFC4D3
:20019800000007060005883A00000506000858001007883A008014441880001500BFFFC428
:2001A000E037883ADFC00117DF000017DEC00204F800283ADEFFFC04DF000315DF00030401
:2001A800E13FFD15E17FFE15E1BFFF15E0BFFF17E037883ADF000017DEC00104F800283A5D
:2001B000DEFFFE04DFC00115DF000015D839883AD0A0051710000326D0A00517103EE83A13
:2001B80000000106D0A00B04E037883ADFC00117DF000017DEC00204F800283ADEFFFA0442
:2001C000DFC00515DF000415DF000404E13FFE15E17FFF15E0BFFE1710000326E0BFFE173F
:2001C800108002171000061E00086C001007883A008005841880001500BFFA8400001306E1
:2001D000E0BFFE17E0FFFF17E0FFFC15E0BFFD15E0BFFD17E0FFFC1710C00115E0BFFC1788
:2001D80010C00017E0BFFD1710C00015E0BFFC1710800017E0FFFD1710C00115E0BFFC17A4
:2001E000E0FFFD1710C000150005883AE037883ADFC00117DF000017DEC00204F800283ADC
:2001E800DEFFFD04DFC00215DF000115DF0001040080007410A52F04E0BFFF1500000606EF
:2001F000E0BFFF1710800017103EE83AE0BFFF1710BFFF04E0BFFF15E0FFFF170080007400
:2001F80010A5300418BFF62E0001883AE037883ADFC00117DF000017DEC00204F800283ABC
:20020000DEFFFD04DFC00215DF000115DF0001040080007410A52F04E0BFFF1500000606D6
:20020800E0BFFF1710800017103EE83AE0BFFF1710BFFF04E0BFFF15E0FFFF1700800074E7
:2002100010A5300418BFF62E0001883AE037883ADFC00117DF000017DEC00204F800283AA3
:20021800DEFFF804DFC00715DF000615DC000515DF000604E13FFB15E17FFC15E1BFFD1506
:20022000E1FFFE15E1BFFE17E17FFD17E13FFC170008AE80E0BFFA15E0BFFA171000221693
:200228000400007484255204E0BFFA17014003041009883A000946408085883A10C000172F
:20023000E0BFFB1710C000150400007484255204E0BFFA17014003041009883A000946403F
:200238008085883A1080010410C00017E0BFFB1710C001150400007484255204E0BFFA17A5
:20024000014003041009883A000946408085883A1080020410C00017E0BFFB1710C0021510
:20024800E13FFA170008C4400001883AE6FFFF04DFC00217DF000117DC000017DEC0030467
:20025000F800283ADEFFFB04DFC00415DF000315DF000304E13FFD15E17FFE15E1BFFF156A
:2002580001C07FC401800044E17FFD1701000074212555040008860001C07FC4000D883AD4
:20026000E17FFE1701000074212552040008860001C07FC401800044E17FFF1701000074B6
:2002680021255804000886000001883AE037883ADFC00117DF000017DEC00204F800283AFF
:20027000DEFFFE04DFC00115DF000015D839883AD0A0051710000326D0A00517103EE83A52
:2002780000000106D0A00B04E037883ADFC00117DF000017DEC00204F800283ADEFFFB0480
:20028000DFC00415DF000315DC000215DF000304E13FFE15E0BFFE171080021710D0003432
:20028800E0BFFE1710C00215E03FFD15000023060400007484255204E0BFFD1701400304EF
:200290001009883A000946408085883A10C00017E0BFFE17108000171880151E0400007498
:2002980084255204E0BFFD17014003041009883A000946408085883A1080020410800017DE
:2002A00010000B0E01400304E13FFD17000946401007883A0080007410A552041887883AD1
:2002A800E0BFFE171880022600BFFCC400000806E0BFFD1710800044E0BFFD15D0A0041772
:2002B0001007883AE0BFFD1718BFD92E0005883AE6FFFF04DFC00217DF000117DC00001773
:2002B800DEC00304F800283ADEFFF604DFC00915DF000815DF000804E13FFD15E17FFE1507
:2002C000E1BFFF1500BFFFC4E0BFF91500BFFB44E0BFFA15E03FFB15D1600204E13FFD17F5
:2002C8000008CEC0E0BFF815E0BFF8171000051EE13FFD170008D7C0E0BFF81500800044B0
:2002D000E0BFFB15E0BFF81710002B26E13FF8170008E840E0BFF915E0BFF9171000030E74
:2002D800E0BFF917E0BFFA150000250601400304E13FF917000946401007883A00800074AA
:2002E00010A552041885883AE0BFFC15E0FFFE170090003410BFFFC41886703AE0BFFC17A0
:2002E80010C00215E0BFFB171000051EE13FFC1700089FC0E0BFFA15E0BFFA1710001016FD
:2002F000E0BFF8171080031710000826E0BFF81710800317E1FFFF17E1BFFE17E17FFD17E1
:2002F800E13FFC17103EE83A000001060005883AE0BFFA150000020600BFFB44E0BFFA1513
:20030000E0BFFA171000090EE13FF9170008C44000089C001007883AE0BFFA170085C83A16
:200308001880001500BFFFC400000106E0BFF917E037883ADFC00117DF000017DEC00204C6
:20031000F800283ADEFFFC04DFC00315DF000215DC000115DF000204E13FFE15E0BFFE172B
:20031800108000D01000111E0400007484255204E0BFFE17014003041009883A0009464049
:200320008085883A10800204100000150400007484255204E0BFFE17014003041009883AED
:20032800000946408085883A100000150001883AE6FFFF04DFC00217DF000117DC000017ED
:20033000DEC00304F800283ADEFFFF04DF000015D839883A000170FA0001883AE037883A00
:20033800DF000017DEC00104F800283ADEFFFA04DFC00515DF000415DF000404E13FFE150C
:20034000E17FFF15E0BFFF1710800017E0BFFC15E13FFE170008FAC010800044E0BFFD15A1
:2003480000000D06E0BFFC1710800217E0FFFD17180D883AE17FFE171009883A0008F7C03E
:200350001000021EE0BFFC1700000706E0BFFC1710800017E0BFFC15E0FFFC17E0BFFF17EE
:2003580018BFF01E0005883AE037883ADFC00117DF000017DEC00204F800283ADEFFFB0479
:20036000DFC00415DF000315DF000304E13FFF15D0A00017E0BFFD1500003106E0BFFD1792
:20036800108002171009883A0008FAC0E0BFFE15E0BFFD1710C00217E0BFFE1710BFFFC49B
:200370001885883A1080000310803FCC1080201C10BFE00410800BD81000031EE0BFFE1709
:2003780010BFFFC4E0BFFE15E0BFFE17E0FFFF171885883A1080000310803FCC1080201C1F
:2003800010BFE00410800BE01000081EE0BFFE17E0FFFF171885883A1080000310803FCCC3
:200388001080201C10BFE00410000A1EE0BFFD1710800217E0FFFE17180D883AE17FFF17F1
:200390001009883A0008F7C01000021EE0BFFD1700000706E0BFFD1710800017E0BFFD15B8
:20039800E0FFFD17D0A0000418BFCC1E0005883AE037883ADFC00117DF000017DEC002042C
:2003A000F800283ADEFFFA04DFC00515DF000415DC000315DF000404E13FFE1500BFFA048C
:2003A800E0BFFD15E03FFC1500001D060400007484255204E0BFFC17014003041009883AE5
:2003B000000946408085883A108000171000111E0400007484255204E0BFFC170140030480
:2003B8001009883A000946408085883AE0FFFE1710C00015D0E00417E0BFFC171880020EF6
:2003C000E0BFFC17D0A00415E0BFFC17E0BFFD1500000606E0BFFC1710800044E0BFFC153D
:2003C800E0BFFC1710800810103FE01EE0BFFD17E6FFFF04DFC00217DF000117DC00001731
:2003D000DEC00304F800283A200B883A000F883A000D883A0009883A0008FC81DEFFFE0452
:2003D800000B883ADC000015DFC001152021883A000912008009883A000948C0218D883AA8
:2003E000218008262080000328C0000310C0022610C5C83AF800283A210000442940004465
:2003E800003FF7060005883AF800283A2005883A10C000071800022610800044003FFC0685
:2003F0001105C83AF800283A0080007410A5F00410C00017DEFFF904DC0000151C000C17ED
:2003F800DD400515DD000415DCC00315DC800215DC400115DFC00615202B883A2823883A8B
:200400003027883A3825883A1029883A8000021E1C000D041C000C158080011700C007C4FC
:200408001880110E00800034108000041000021E00BFFFC4000031060100230400000000C4
:200410001021883A103FFA2610000115A080001710C00C1780C0001514000C1580002215D9
:20041800A8001D2600000606A8001B26808022171000091E0080003410800004103FEC26CB
:200420000100420400000000103FE9261000401510004115808022158140011701000044F7
:200428002947883A18C7883A10C7883A1CC000152148983A11404017290AB03A11404015B1
:200430001C80201500C00084A8C0031E10C041171908B03A110041158080011710C0004448
:20043800108000841085883A1085883A80C0011580A1883A844000150005883ADFC006174D
:20044000DD400517DD000417DCC00317DC800217DC400117DC000017DEC00704F800283A16
:20044800DEFFF504DD00051505000074DC800315DFC00A15DF000915DDC00815DD800715EC
:20045000DD400615DCC00415DC400215DC000115D90000152825883AA525F004A4400017C4
:200458008CC00C178C400C04980045269C0001170090003410BFFFC49D40221785BFFFC40F
:2004600080A1883A8421883A8421883AAC2F883A840002049C21883AB0002716900007267B
:20046800A800041EB5BFFFC4BDFFFF04843FFF04003FF906B9002017913FFA1E9900011727
:2004700082000017213FFFC4B100021E9D8001150000010680000015403FF2269F000117C2
:20047800A8000526008000441592983AA9404017494A703A2800021E403EE83A00000906E0
:20048000A90041174908703A2000041EB9400017D9000017403EE83A00000206B9000017A6
:20048800403EE83A99000117E13FCC1E89000017993FDC26003FC906008000341080000429
:2004900010000F2699400117990000172800091E2000082689000015A8000226A809883AE8
:20049800000000009809883A000000008CC00017003FBD069823883A2027883A003FBA06F7
:2004A000DFC00A17DF000917DDC00817DD800717DD400617DD000517DCC00417DC800317E6
:2004A800DC400217DC000117DEC00B04F800283A20001B16000F883A28001616200D883A9F
:2004B00029001A2E0080080400C000440000010610000D26294B883A10BFFFC418C7883A78
:2004B800293FFB360005883A180007260005883A31400236314DC83A10C4B03A1806D07A69
:2004C000280AD07A183FFA1E380001260085C83AF800283A014BC83A39C0005C003FE70622
:2004C8000109C83A01C00044003FE30600C00044003FEE0620001716000F883A2005883A9F
:2004D000280012162900162E0180080400C000440000010630000A26294B883A31BFFFC46E
:2004D80018C7883A293FFB36180005261806D07A114001361145C83A280AD07A183FFB1E53
:2004E000380001260085C83AF800283A014BC83A003FEC060109C83A01C00044003FE70600
:2004E80000C00044003FF106200D883A2900152E280014160080080400C000440000020675
:2004F00010000E2628000516294B883A10BFFFC418C7883A293FFA36180008260005883A57
:2004F80031400236314DC83A10C4B03A1806D07A280AD07A183FFA1EF800283A0005883A89
:20050000F800283A00C00044003FF4062005883A2900122E280011160180080400C0004414
:200508000000020630000C2628000516294B883A31BFFFC418C7883A293FFA3618000626C0
:200510001806D07A114001361145C83A280AD07A183FFB1EF800283AF800283A00C00044DF
:20051800003FF7060005883A2000072620C0004C2008D07A180001261145883A294B883A48
:20052000203FFA1EF800283AF800283ADEFFFD04DF000215DF000204E13FFF150001883AE0
:20052800E0BFFF17E0BFFE15E0BFFE1710000226002AF07000000106002AF0B0003FFF06C1
:200530007665642F61746A2F61755F67305F7472000000007665642F61746A2F61755F6746
:20053800305F7472000000007665642F6C756E2F0000006C0000000000000000000094D46E
:200540000000000000000000000081E8000082480000000000000000000000000001101047
:20054800000097B0000097B0000094E800000000000000000000000000008694000000006F
:20055000000000000000000000009520000000000000000000009520000000000000000021
:200558000000952000000000000000000000000000000000000000000000000000000000CE
:2005600000000000000000000000000000000000000000000000000000000000000000007B
:20056800000000000000000000000000000000000000000000000000000000000000000073
:2005700000000000000000000000000000000000000000000000000000000000000000006B
:20057800000000000000000000000000000000000000000000000000000000000000000063
:2005800000000000000000000000000000000000000000000000000000000000000000005B
:20058800000000000000000000000000000000000000000000000000000000000000000053
:2005900000000000000000000000000000000000000000000000000000000000000000004B
:20059800000000000000000000000000000000000000000000000000000000000000000043
:2005A00000000000000000000000000000000000000000000000000000000000000000003B
:2005A800000000000000000000000000000000000000000000000000000000000000000033
:2005B0000000000000000000000000000000978800009790000097980000000000000000B6
:2005B800000000000000000000000000000000000000000000000000000000000000000023
:2005C00000000000000000000000000000000000000000000000000000000000000000001B
:2005C800000000000000000000000000000000000000000000000000000000000000000013
:2005D00000000000000000000000000000000000000000000000000000000000000000000B
:2005D800000000000000000000000000000000000000000000000000000000000000000003
:2005E000000000000000000000000004000000000001000A000000000002000A00000000E0
:2005E8000000000000000000000097A8000097A80000952000009520FFFFFFFF000000000F
:2005F000000096C8000096C80000000000000000000000000000000000000000000000002F
:2005F8000000000000000000000000000000000000000000000000000000000000000000E3
:200600000000000000000000000000000000000000000000000000000000000000000000DA
:200608000000000000000000000000000000000000000000000000000000000000000000D2
:200610000000000000000000000000000000000000000000000000000000000000000000CA
:00000001FF
